:100000000C9446000C9465000C9465000C946500FB
:100010000C9465000C9465000C9465000C946500CC
:100020000C9465000C9465000C9465000C946500BC
:100030000C9465000C9465000C9465000C946500AC
:100040000C9465000C9465000C9465000C9465009C
:100050000C9465000C9465000C9465000C9465008C
:100060000C9465000C9465000C9465000C9465007C
:100070000C9465000C9465000C9465000C9465006C
:100080000C9465000C9465000C94650011241FBE4F
:10009000CFEFD0E4DEBFCDBF11E0A0E0B1E0E4EEF1
:1000A000F2E000E00BBF02C007900D92A031B10753
:1000B000D9F721E0A0E1B1E001C01D92A231B20761
:1000C000E1F70E94A1000C9470010C940000CF9302
:1000D000DF9300D00F92CDB7DEB789837B836A832D
:1000E00089818A3031F48A819B81BC018DE00E9434
:1000F000670080EC90E0FC018081882F90E08072A6
:100100009927892BB1F386EC90E02981FC012083AB
:1001100080E090E00F900F900F90DF91CF910895C5
:10012000CF93DF93CDB7DEB78AE790E0FC01208163
:100130008AE790E0206EFC0120830000DF91CF91E0
:100140000895CF93DF9300D00F92CDB7DEB781E251
:1001500090E0FC01108282E290E02FEFFC0120830E
:1001600084E290E02FEFFC01208385E290E0FC0127
:1001700010820E94900080910E0190910F0196953F
:10018000879596958795969587959A83898388E72D
:1001900090E0FC0180819181809590959093110170
:1001A0008093100180911001909111018B838B81BC
:1001B000882F90E029813A812817390730F085E2AD
:1001C00090E021E0FC012083E2CF8B81282F30E0FA
:1001D00089819A81880F991F8217930730F085E2F1
:1001E00090E023E0FC012083D2CF8B81482F50E0A8
:1001F00029813A81C901880F991F820F931F8417A3
:10020000950730F085E290E027E0FC012083BFCF26
:100210008B81282F30E089819A81880F991F880F60
:10022000991F8217930730F085E290E02FE0FC01E0
:100230002083ADCF8B81482F50E029813A81C901BD
:10024000880F991F880F991F820F931F8417950796
:1002500030F085E290E02FE1FC01208398CF8B8184
:10026000482F50E029813A81C901880F991F820FD8
:10027000931F880F991F8417950730F085E290E04F
:100280002FE3FC01208383CF8B81482F50E029810D
:100290003A81C901880F991F880F991F880F991FEC
:1002A000821B930B8417950730F085E290E02FE7CF
:1002B000FC0120836CCF8B81282F30E089819A81CB
:1002C000880F991F880F991F880F991F821793070E
:1002D00008F45DCF85E290E02FEFFC01208357CF3B
:0402E000F894FFCFC0
:1002E4000000000200000000670000000000FF00A2
:00000001FF
